{
  "_format": "hh-sol-artifact-1",
  "contractName": "Marketplace",
  "sourceName": "src/backend/contracts/Marketplace.sol",
  "abi": [
    {
      "inputs": [
        {
          "internalType": "uint256",
          "name": "_royaltyPercent",
          "type": "uint256"
        }
      ],
      "stateMutability": "nonpayable",
      "type": "constructor"
    },
    {
      "anonymous": false,
      "inputs": [
        {
          "indexed": false,
          "internalType": "uint256",
          "name": "itemId",
          "type": "uint256"
        },
        {
          "indexed": true,
          "internalType": "address",
          "name": "nft",
          "type": "address"
        },
        {
          "indexed": false,
          "internalType": "uint256",
          "name": "tokenId",
          "type": "uint256"
        },
        {
          "indexed": false,
          "internalType": "uint256",
          "name": "price",
          "type": "uint256"
        },
        {
          "indexed": true,
          "internalType": "address",
          "name": "seller",
          "type": "address"
        },
        {
          "indexed": true,
          "internalType": "address",
          "name": "buyer",
          "type": "address"
        }
      ],
      "name": "Bought",
      "type": "event"
    },
    {
      "anonymous": false,
      "inputs": [
        {
          "indexed": false,
          "internalType": "uint256",
          "name": "itemId",
          "type": "uint256"
        },
        {
          "indexed": true,
          "internalType": "address",
          "name": "nft",
          "type": "address"
        },
        {
          "indexed": false,
          "internalType": "uint256",
          "name": "tokenId",
          "type": "uint256"
        },
        {
          "indexed": false,
          "internalType": "uint256",
          "name": "price",
          "type": "uint256"
        },
        {
          "indexed": true,
          "internalType": "address",
          "name": "seller",
          "type": "address"
        }
      ],
      "name": "Offered",
      "type": "event"
    },
    {
      "inputs": [
        {
          "internalType": "uint256",
          "name": "_itemId",
          "type": "uint256"
        }
      ],
      "name": "getTotalPrice",
      "outputs": [
        {
          "internalType": "uint256",
          "name": "",
          "type": "uint256"
        }
      ],
      "stateMutability": "view",
      "type": "function"
    },
    {
      "inputs": [],
      "name": "itemCount",
      "outputs": [
        {
          "internalType": "uint256",
          "name": "",
          "type": "uint256"
        }
      ],
      "stateMutability": "view",
      "type": "function"
    },
    {
      "inputs": [
        {
          "internalType": "uint256",
          "name": "",
          "type": "uint256"
        }
      ],
      "name": "items",
      "outputs": [
        {
          "internalType": "uint256",
          "name": "itemId",
          "type": "uint256"
        },
        {
          "internalType": "contract IERC721",
          "name": "nft",
          "type": "address"
        },
        {
          "internalType": "uint256",
          "name": "tokenId",
          "type": "uint256"
        },
        {
          "internalType": "uint256",
          "name": "price",
          "type": "uint256"
        },
        {
          "internalType": "address payable",
          "name": "seller",
          "type": "address"
        },
        {
          "internalType": "bool",
          "name": "sold",
          "type": "bool"
        },
        {
          "internalType": "address payable",
          "name": "royaltyFeeAccount",
          "type": "address"
        }
      ],
      "stateMutability": "view",
      "type": "function"
    },
    {
      "inputs": [
        {
          "internalType": "contract IERC721",
          "name": "_nft",
          "type": "address"
        },
        {
          "internalType": "uint256",
          "name": "_tokenId",
          "type": "uint256"
        },
        {
          "internalType": "uint256",
          "name": "_price",
          "type": "uint256"
        }
      ],
      "name": "makeItem",
      "outputs": [],
      "stateMutability": "nonpayable",
      "type": "function"
    },
    {
      "inputs": [
        {
          "internalType": "uint256",
          "name": "_itemId",
          "type": "uint256"
        }
      ],
      "name": "purchaseItem",
      "outputs": [],
      "stateMutability": "payable",
      "type": "function"
    },
    {
      "inputs": [],
      "name": "royaltyPercent",
      "outputs": [
        {
          "internalType": "uint256",
          "name": "",
          "type": "uint256"
        }
      ],
      "stateMutability": "view",
      "type": "function"
    }
  ],
  "bytecode": "0x60a060405234801561001057600080fd5b5060405162001162380380620011628339818101604052810190610034919061005f565b60016000819055508060808181525050506100b2565b6000815190506100598161009b565b92915050565b60006020828403121561007557610074610096565b5b60006100838482850161004a565b91505092915050565b6000819050919050565b600080fd5b6100a48161008c565b81146100af57600080fd5b50565b60805161108d620000d56000396000818161017d0152610254015261108d6000f3fe6080604052600436106100555760003560e01c80636bfb0d011461005a5780639f67756d14610085578063bfb231d2146100b0578063ca7dd375146100f3578063d38ea5bf14610130578063fa00afc71461014c575b600080fd5b34801561006657600080fd5b5061006f610175565b60405161007c9190610c01565b60405180910390f35b34801561009157600080fd5b5061009a61017b565b6040516100a79190610c01565b60405180910390f35b3480156100bc57600080fd5b506100d760048036038101906100d29190610a03565b61019f565b6040516100ea9796959493929190610c1c565b60405180910390f35b3480156100ff57600080fd5b5061011a60048036038101906101159190610a03565b61024e565b6040516101279190610c01565b60405180910390f35b61014a60048036038101906101459190610a03565b6102b1565b005b34801561015857600080fd5b50610173600480360381019061016e91906109b0565b61063d565b005b60015481565b7f000000000000000000000000000000000000000000000000000000000000000081565b60026020528060005260406000206000915090508060000154908060010160009054906101000a900473ffffffffffffffffffffffffffffffffffffffff16908060020154908060030154908060040160009054906101000a900473ffffffffffffffffffffffffffffffffffffffff16908060040160149054906101000a900460ff16908060050160009054906101000a900473ffffffffffffffffffffffffffffffffffffffff16905087565b600060647f0000000000000000000000000000000000000000000000000000000000000000606461027f9190610cd3565b60026000858152602001908152602001600020600301546102a09190610d5a565b6102aa9190610d29565b9050919050565b6102b961092c565b60006102c48261024e565b905060006002600084815260200190815260200160002090506000831180156102ef57506001548311155b61032e576040517f08c379a000000000000000000000000000000000000000000000000000000000815260040161032590610bc1565b60405180910390fd5b81341015610371576040517f08c379a000000000000000000000000000000000000000000000000000000000815260040161036890610ba1565b60405180910390fd5b8060040160149054906101000a900460ff16156103c3576040517f08c379a00000000000000000000000000000000000000000000000000000000081526004016103ba90610b61565b60405180910390fd5b8060040160009054906101000a900473ffffffffffffffffffffffffffffffffffffffff1673ffffffffffffffffffffffffffffffffffffffff166108fc82600301549081150290604051600060405180830381858888f19350505050158015610431573d6000803e3d6000fd5b508060050160009054906101000a900473ffffffffffffffffffffffffffffffffffffffff1673ffffffffffffffffffffffffffffffffffffffff166108fc8260030154846104809190610db4565b9081150290604051600060405180830381858888f193505050501580156104ab573d6000803e3d6000fd5b5060018160040160146101000a81548160ff0219169083151502179055508060010160009054906101000a900473ffffffffffffffffffffffffffffffffffffffff1673ffffffffffffffffffffffffffffffffffffffff166323b872dd303384600201546040518463ffffffff1660e01b815260040161052e93929190610b2a565b600060405180830381600087803b15801561054857600080fd5b505af115801561055c573d6000803e3d6000fd5b505050503373ffffffffffffffffffffffffffffffffffffffff168160040160009054906101000a900473ffffffffffffffffffffffffffffffffffffffff1673ffffffffffffffffffffffffffffffffffffffff168260010160009054906101000a900473ffffffffffffffffffffffffffffffffffffffff1673ffffffffffffffffffffffffffffffffffffffff167f8b4c9c8a607d67b321582dd8461041b1dc2ceeca70c8b7f37f8e02095cf2e76d868560020154866003015460405161062893929190610c8b565b60405180910390a4505061063a61097c565b50565b61064561092c565b60008111610688576040517f08c379a000000000000000000000000000000000000000000000000000000000815260040161067f90610b81565b60405180910390fd5b6001600081548092919061069b90610e8a565b91905055508273ffffffffffffffffffffffffffffffffffffffff166323b872dd3330856040518463ffffffff1660e01b81526004016106dd93929190610b2a565b600060405180830381600087803b1580156106f757600080fd5b505af115801561070b573d6000803e3d6000fd5b505050506040518060e0016040528060015481526020018473ffffffffffffffffffffffffffffffffffffffff1681526020018381526020018281526020013373ffffffffffffffffffffffffffffffffffffffff1681526020016000151581526020013073ffffffffffffffffffffffffffffffffffffffff168152506002600060015481526020019081526020016000206000820151816000015560208201518160010160006101000a81548173ffffffffffffffffffffffffffffffffffffffff021916908373ffffffffffffffffffffffffffffffffffffffff160217905550604082015181600201556060820151816003015560808201518160040160006101000a81548173ffffffffffffffffffffffffffffffffffffffff021916908373ffffffffffffffffffffffffffffffffffffffff16021790555060a08201518160040160146101000a81548160ff02191690831515021790555060c08201518160050160006101000a81548173ffffffffffffffffffffffffffffffffffffffff021916908373ffffffffffffffffffffffffffffffffffffffff1602179055509050503373ffffffffffffffffffffffffffffffffffffffff168373ffffffffffffffffffffffffffffffffffffffff167f655a0cf9c8db81512be9a76dc1c5ae5380b8816ce6ad659cd61b715e2999d59a600154858560405161091793929190610c8b565b60405180910390a361092761097c565b505050565b60026000541415610972576040517f08c379a000000000000000000000000000000000000000000000000000000000815260040161096990610be1565b60405180910390fd5b6002600081905550565b6001600081905550565b60008135905061099581611029565b92915050565b6000813590506109aa81611040565b92915050565b6000806000606084860312156109c9576109c8610f31565b5b60006109d786828701610986565b93505060206109e88682870161099b565b92505060406109f98682870161099b565b9150509250925092565b600060208284031215610a1957610a18610f31565b5b6000610a278482850161099b565b91505092915050565b610a3981610dfa565b82525050565b610a4881610de8565b82525050565b610a5781610e0c565b82525050565b610a6681610e54565b82525050565b6000610a79601183610cc2565b9150610a8482610f36565b602082019050919050565b6000610a9c601f83610cc2565b9150610aa782610f5f565b602082019050919050565b6000610abf603383610cc2565b9150610aca82610f88565b604082019050919050565b6000610ae2601283610cc2565b9150610aed82610fd7565b602082019050919050565b6000610b05601f83610cc2565b9150610b1082611000565b602082019050919050565b610b2481610e4a565b82525050565b6000606082019050610b3f6000830186610a3f565b610b4c6020830185610a3f565b610b596040830184610b1b565b949350505050565b60006020820190508181036000830152610b7a81610a6c565b9050919050565b60006020820190508181036000830152610b9a81610a8f565b9050919050565b60006020820190508181036000830152610bba81610ab2565b9050919050565b60006020820190508181036000830152610bda81610ad5565b9050919050565b60006020820190508181036000830152610bfa81610af8565b9050919050565b6000602082019050610c166000830184610b1b565b92915050565b600060e082019050610c31600083018a610b1b565b610c3e6020830189610a5d565b610c4b6040830188610b1b565b610c586060830187610b1b565b610c656080830186610a30565b610c7260a0830185610a4e565b610c7f60c0830184610a30565b98975050505050505050565b6000606082019050610ca06000830186610b1b565b610cad6020830185610b1b565b610cba6040830184610b1b565b949350505050565b600082825260208201905092915050565b6000610cde82610e4a565b9150610ce983610e4a565b9250827fffffffffffffffffffffffffffffffffffffffffffffffffffffffffffffffff03821115610d1e57610d1d610ed3565b5b828201905092915050565b6000610d3482610e4a565b9150610d3f83610e4a565b925082610d4f57610d4e610f02565b5b828204905092915050565b6000610d6582610e4a565b9150610d7083610e4a565b9250817fffffffffffffffffffffffffffffffffffffffffffffffffffffffffffffffff0483118215151615610da957610da8610ed3565b5b828202905092915050565b6000610dbf82610e4a565b9150610dca83610e4a565b925082821015610ddd57610ddc610ed3565b5b828203905092915050565b6000610df382610e2a565b9050919050565b6000610e0582610e2a565b9050919050565b60008115159050919050565b6000610e2382610de8565b9050919050565b600073ffffffffffffffffffffffffffffffffffffffff82169050919050565b6000819050919050565b6000610e5f82610e66565b9050919050565b6000610e7182610e78565b9050919050565b6000610e8382610e2a565b9050919050565b6000610e9582610e4a565b91507fffffffffffffffffffffffffffffffffffffffffffffffffffffffffffffffff821415610ec857610ec7610ed3565b5b600182019050919050565b7f4e487b7100000000000000000000000000000000000000000000000000000000600052601160045260246000fd5b7f4e487b7100000000000000000000000000000000000000000000000000000000600052601260045260246000fd5b600080fd5b7f6974656d20616c726561647920736f6c64000000000000000000000000000000600082015250565b7f5072696365206d7573742062652067726561746572207468616e207a65726f00600082015250565b7f6e6f7420656e6f75676820657468657220746f20636f766572206974656d207060008201527f7269636520616e64206d61726b65742066656500000000000000000000000000602082015250565b7f6974656d20646f65736e27742065786973740000000000000000000000000000600082015250565b7f5265656e7472616e637947756172643a207265656e7472616e742063616c6c00600082015250565b61103281610e18565b811461103d57600080fd5b50565b61104981610e4a565b811461105457600080fd5b5056fea264697066735822122001d68b836f2cf6b1ea76d3b8b0538fb1364ada0904735945b566c241016dde8364736f6c63430008070033",
  "linkReferences": {},
  "deployedLinkReferences": {}
}