{
  "_format": "hh-sol-artifact-1",
  "contractName": "Marketplace",
  "sourceName": "src/backend/contracts/Marketplace.sol",
  "abi": [
    {
      "anonymous": false,
      "inputs": [
        {
          "indexed": false,
          "internalType": "uint256",
          "name": "itemId",
          "type": "uint256"
        },
        {
          "indexed": true,
          "internalType": "address",
          "name": "nft",
          "type": "address"
        },
        {
          "indexed": false,
          "internalType": "uint256",
          "name": "tokenId",
          "type": "uint256"
        },
        {
          "indexed": false,
          "internalType": "uint256",
          "name": "price",
          "type": "uint256"
        },
        {
          "indexed": true,
          "internalType": "address",
          "name": "seller",
          "type": "address"
        },
        {
          "indexed": true,
          "internalType": "address",
          "name": "buyer",
          "type": "address"
        }
      ],
      "name": "Bought",
      "type": "event"
    },
    {
      "anonymous": false,
      "inputs": [
        {
          "indexed": false,
          "internalType": "uint256",
          "name": "itemId",
          "type": "uint256"
        },
        {
          "indexed": true,
          "internalType": "address",
          "name": "nft",
          "type": "address"
        },
        {
          "indexed": false,
          "internalType": "uint256",
          "name": "tokenId",
          "type": "uint256"
        },
        {
          "indexed": false,
          "internalType": "uint256",
          "name": "price",
          "type": "uint256"
        },
        {
          "indexed": true,
          "internalType": "address",
          "name": "seller",
          "type": "address"
        }
      ],
      "name": "Offered",
      "type": "event"
    },
    {
      "inputs": [
        {
          "internalType": "uint256",
          "name": "_itemId",
          "type": "uint256"
        }
      ],
      "name": "getTotalPrice",
      "outputs": [
        {
          "internalType": "uint256",
          "name": "",
          "type": "uint256"
        }
      ],
      "stateMutability": "view",
      "type": "function"
    },
    {
      "inputs": [],
      "name": "itemCount",
      "outputs": [
        {
          "internalType": "uint256",
          "name": "",
          "type": "uint256"
        }
      ],
      "stateMutability": "view",
      "type": "function"
    },
    {
      "inputs": [
        {
          "internalType": "uint256",
          "name": "",
          "type": "uint256"
        }
      ],
      "name": "items",
      "outputs": [
        {
          "internalType": "uint256",
          "name": "itemId",
          "type": "uint256"
        },
        {
          "internalType": "contract IERC721",
          "name": "nft",
          "type": "address"
        },
        {
          "internalType": "uint256",
          "name": "tokenId",
          "type": "uint256"
        },
        {
          "internalType": "uint256",
          "name": "price",
          "type": "uint256"
        },
        {
          "internalType": "address payable",
          "name": "seller",
          "type": "address"
        },
        {
          "internalType": "bool",
          "name": "sold",
          "type": "bool"
        },
        {
          "internalType": "address payable",
          "name": "royaltyFeeAccount",
          "type": "address"
        }
      ],
      "stateMutability": "view",
      "type": "function"
    },
    {
      "inputs": [
        {
          "internalType": "contract IERC721",
          "name": "_nft",
          "type": "address"
        },
        {
          "internalType": "uint256",
          "name": "_tokenId",
          "type": "uint256"
        },
        {
          "internalType": "uint256",
          "name": "_price",
          "type": "uint256"
        }
      ],
      "name": "makeItem",
      "outputs": [],
      "stateMutability": "nonpayable",
      "type": "function"
    },
    {
      "inputs": [
        {
          "internalType": "uint256",
          "name": "_itemId",
          "type": "uint256"
        }
      ],
      "name": "purchaseItem",
      "outputs": [],
      "stateMutability": "payable",
      "type": "function"
    },
    {
      "inputs": [],
      "name": "royaltyPercent",
      "outputs": [
        {
          "internalType": "uint256",
          "name": "",
          "type": "uint256"
        }
      ],
      "stateMutability": "view",
      "type": "function"
    }
  ],
  "bytecode": "0x6080604052601460015534801561001557600080fd5b50600160008190555061102f8061002d6000396000f3fe6080604052600436106100555760003560e01c80636bfb0d011461005a5780639f67756d14610085578063bfb231d2146100b0578063ca7dd375146100f3578063d38ea5bf14610130578063fa00afc71461014c575b600080fd5b34801561006657600080fd5b5061006f610175565b60405161007c9190610962565b60405180910390f35b34801561009157600080fd5b5061009a61017b565b6040516100a79190610962565b60405180910390f35b3480156100bc57600080fd5b506100d760048036038101906100d291906109ae565b610181565b6040516100ea9796959493929190610a96565b60405180910390f35b3480156100ff57600080fd5b5061011a600480360381019061011591906109ae565b610230565b6040516101279190610962565b60405180910390f35b61014a600480360381019061014591906109ae565b610275565b005b34801561015857600080fd5b50610173600480360381019061016e9190610b55565b610601565b005b60025481565b60015481565b60036020528060005260406000206000915090508060000154908060010160009054906101000a900473ffffffffffffffffffffffffffffffffffffffff16908060020154908060030154908060040160009054906101000a900473ffffffffffffffffffffffffffffffffffffffff16908060040160149054906101000a900460ff16908060050160009054906101000a900473ffffffffffffffffffffffffffffffffffffffff16905087565b6000606460015460646102439190610bd7565b60036000858152602001908152602001600020600301546102649190610c0b565b61026e9190610c7c565b9050919050565b61027d6108f0565b600061028882610230565b905060006003600084815260200190815260200160002090506000831180156102b357506002548311155b6102f2576040517f08c379a00000000000000000000000000000000000000000000000000000000081526004016102e990610d0a565b60405180910390fd5b81341015610335576040517f08c379a000000000000000000000000000000000000000000000000000000000815260040161032c90610d9c565b60405180910390fd5b8060040160149054906101000a900460ff1615610387576040517f08c379a000000000000000000000000000000000000000000000000000000000815260040161037e90610e08565b60405180910390fd5b8060040160009054906101000a900473ffffffffffffffffffffffffffffffffffffffff1673ffffffffffffffffffffffffffffffffffffffff166108fc82600301549081150290604051600060405180830381858888f193505050501580156103f5573d6000803e3d6000fd5b508060050160009054906101000a900473ffffffffffffffffffffffffffffffffffffffff1673ffffffffffffffffffffffffffffffffffffffff166108fc8260030154846104449190610e28565b9081150290604051600060405180830381858888f1935050505015801561046f573d6000803e3d6000fd5b5060018160040160146101000a81548160ff0219169083151502179055508060010160009054906101000a900473ffffffffffffffffffffffffffffffffffffffff1673ffffffffffffffffffffffffffffffffffffffff166323b872dd303384600201546040518463ffffffff1660e01b81526004016104f293929190610e6b565b600060405180830381600087803b15801561050c57600080fd5b505af1158015610520573d6000803e3d6000fd5b505050503373ffffffffffffffffffffffffffffffffffffffff168160040160009054906101000a900473ffffffffffffffffffffffffffffffffffffffff1673ffffffffffffffffffffffffffffffffffffffff168260010160009054906101000a900473ffffffffffffffffffffffffffffffffffffffff1673ffffffffffffffffffffffffffffffffffffffff167f8b4c9c8a607d67b321582dd8461041b1dc2ceeca70c8b7f37f8e02095cf2e76d86856002015486600301546040516105ec93929190610ea2565b60405180910390a450506105fe61093f565b50565b6106096108f0565b6000811161064c576040517f08c379a000000000000000000000000000000000000000000000000000000000815260040161064390610f25565b60405180910390fd5b6002600081548092919061065f90610f45565b91905055508273ffffffffffffffffffffffffffffffffffffffff166323b872dd3330856040518463ffffffff1660e01b81526004016106a193929190610e6b565b600060405180830381600087803b1580156106bb57600080fd5b505af11580156106cf573d6000803e3d6000fd5b505050506040518060e0016040528060025481526020018473ffffffffffffffffffffffffffffffffffffffff1681526020018381526020018281526020013373ffffffffffffffffffffffffffffffffffffffff1681526020016000151581526020013373ffffffffffffffffffffffffffffffffffffffff168152506003600060025481526020019081526020016000206000820151816000015560208201518160010160006101000a81548173ffffffffffffffffffffffffffffffffffffffff021916908373ffffffffffffffffffffffffffffffffffffffff160217905550604082015181600201556060820151816003015560808201518160040160006101000a81548173ffffffffffffffffffffffffffffffffffffffff021916908373ffffffffffffffffffffffffffffffffffffffff16021790555060a08201518160040160146101000a81548160ff02191690831515021790555060c08201518160050160006101000a81548173ffffffffffffffffffffffffffffffffffffffff021916908373ffffffffffffffffffffffffffffffffffffffff1602179055509050503373ffffffffffffffffffffffffffffffffffffffff168373ffffffffffffffffffffffffffffffffffffffff167f655a0cf9c8db81512be9a76dc1c5ae5380b8816ce6ad659cd61b715e2999d59a60025485856040516108db93929190610ea2565b60405180910390a36108eb61093f565b505050565b600260005403610935576040517f08c379a000000000000000000000000000000000000000000000000000000000815260040161092c90610fd9565b60405180910390fd5b6002600081905550565b6001600081905550565b6000819050919050565b61095c81610949565b82525050565b60006020820190506109776000830184610953565b92915050565b600080fd5b61098b81610949565b811461099657600080fd5b50565b6000813590506109a881610982565b92915050565b6000602082840312156109c4576109c361097d565b5b60006109d284828501610999565b91505092915050565b600073ffffffffffffffffffffffffffffffffffffffff82169050919050565b6000819050919050565b6000610a20610a1b610a16846109db565b6109fb565b6109db565b9050919050565b6000610a3282610a05565b9050919050565b6000610a4482610a27565b9050919050565b610a5481610a39565b82525050565b6000610a65826109db565b9050919050565b610a7581610a5a565b82525050565b60008115159050919050565b610a9081610a7b565b82525050565b600060e082019050610aab600083018a610953565b610ab86020830189610a4b565b610ac56040830188610953565b610ad26060830187610953565b610adf6080830186610a6c565b610aec60a0830185610a87565b610af960c0830184610a6c565b98975050505050505050565b6000610b10826109db565b9050919050565b6000610b2282610b05565b9050919050565b610b3281610b17565b8114610b3d57600080fd5b50565b600081359050610b4f81610b29565b92915050565b600080600060608486031215610b6e57610b6d61097d565b5b6000610b7c86828701610b40565b9350506020610b8d86828701610999565b9250506040610b9e86828701610999565b9150509250925092565b7f4e487b7100000000000000000000000000000000000000000000000000000000600052601160045260246000fd5b6000610be282610949565b9150610bed83610949565b9250828201905080821115610c0557610c04610ba8565b5b92915050565b6000610c1682610949565b9150610c2183610949565b9250828202610c2f81610949565b91508282048414831517610c4657610c45610ba8565b5b5092915050565b7f4e487b7100000000000000000000000000000000000000000000000000000000600052601260045260246000fd5b6000610c8782610949565b9150610c9283610949565b925082610ca257610ca1610c4d565b5b828204905092915050565b600082825260208201905092915050565b7f6974656d20646f65736e27742065786973740000000000000000000000000000600082015250565b6000610cf4601283610cad565b9150610cff82610cbe565b602082019050919050565b60006020820190508181036000830152610d2381610ce7565b9050919050565b7f6e6f7420656e6f75676820657468657220746f20636f766572206974656d207060008201527f7269636520616e64206d61726b65742066656500000000000000000000000000602082015250565b6000610d86603383610cad565b9150610d9182610d2a565b604082019050919050565b60006020820190508181036000830152610db581610d79565b9050919050565b7f6974656d20616c726561647920736f6c64000000000000000000000000000000600082015250565b6000610df2601183610cad565b9150610dfd82610dbc565b602082019050919050565b60006020820190508181036000830152610e2181610de5565b9050919050565b6000610e3382610949565b9150610e3e83610949565b9250828203905081811115610e5657610e55610ba8565b5b92915050565b610e6581610b05565b82525050565b6000606082019050610e806000830186610e5c565b610e8d6020830185610e5c565b610e9a6040830184610953565b949350505050565b6000606082019050610eb76000830186610953565b610ec46020830185610953565b610ed16040830184610953565b949350505050565b7f5072696365206d7573742062652067726561746572207468616e207a65726f00600082015250565b6000610f0f601f83610cad565b9150610f1a82610ed9565b602082019050919050565b60006020820190508181036000830152610f3e81610f02565b9050919050565b6000610f5082610949565b91507fffffffffffffffffffffffffffffffffffffffffffffffffffffffffffffffff8203610f8257610f81610ba8565b5b600182019050919050565b7f5265656e7472616e637947756172643a207265656e7472616e742063616c6c00600082015250565b6000610fc3601f83610cad565b9150610fce82610f8d565b602082019050919050565b60006020820190508181036000830152610ff281610fb6565b905091905056fea26469706673582212204a95abe8da9c5a74c05bf76c50510e1d428bb1e72fad727c3f2b7803bd55d95364736f6c63430008140033",
  "linkReferences": {},
  "deployedLinkReferences": {}
}